:020000041000EA
:1000000000B5324B212058609868022188439860DF
:10001000D860186158612E4B002199600221596106
:100020000121F02299502B49196001219960352056
:1000300000F044F80222904214D00621196600F024
:1000400034F8196E01211966002018661A6600F04E
:100050002CF8196E196E196E052000F02FF8012189
:100060000842F9D1002199601B49196000215960AB
:100070001A491B48016001219960EB211966A021F2
:10008000196600F012F800219960164914480160C1
:100090000121996001BC002800D000471248134993
:1000A000086003C880F30888084703B5996A0420EC
:1000B0000142FBD001200142F8D103BD02B5186610
:1000C0001866FFF7F2FF186E186E02BD00000240BE
:1000D000000000180000070000035F00212200005C
:1000E000F4000018222000A00001001008ED00E03C
:1000F00000000000000000000000000074B24E7A12
:1001000000200420F7010010C3010010C5010010F9
:10011000C1010010C1010010C1010010C101001097
:10012000C1010010C1010010C1010010C701001081
:10013000C1010010C1010010C9010010CB01001065
:10014000CD010010CD010010CD010010CD01001037
:10015000CD010010CD010010CD010010CD01001027
:10016000CD010010CD010010CD010010CD01001017
:10017000CD010010CD010010CD010010CD01001007
:10018000CD010010CD010010CD010010CD010010F7
:10019000CD010010CD010010CD010010CD010010E7
:1001A000CD010010CD010010CD010010CD010010D7
:1001B000CD010010CD010010CD010010CD010010C7
:1001C00000BE00BE00BE00BE00BE00BE00F04BF888
:1001D000103800BEF2EB88710C81001030810010E5
:1001E0003402001090A31AE700202149086006C8D5
:1001F00081F3088810471F48006800282FD10DA4FC
:100200000ECC002902D000F012F8F9E71A491B4A77
:10021000002000E001C19142FCD1194988471949E9
:1002200088471949884700BEFDE701C901C29A42C3
:10023000FBD3704730810010C0000020B0030020C5
:1002400020840010000004200000042020840010FE
:1002500000100420001004200000000070470B482C
:1002600002F0E0FF0047EFF30580C0B270470000E6
:1002700008ED00E0000000D0B00300206C12002068
:10028000791700105D030010491800105756000040
:1002900006005250ABB36053687A0010060052500B
:1002A000861C0302787A0010060052505422A29D48
:1002B000847A001005005250DE65F4682084001036
:1002C000F8B5C0460448054B10B5834203D0044B33
:1002D000002B00D0984710BDB0030020B0030020D1
:1002E0000000000006480749091A8B10C90FC918F9
:1002F00010B5491003D0044B002B00D0984710BD17
:10030000B0030020B00300200000000010B5074C2F
:100310002378002B09D1FFF7D5FF054B002B02D026
:10032000044800E000BF0123237010BDB804002082
:1003300000000000486D0010054B10B5002B03D0E5
:100340000449054800E000BFFFF7CCFF10BDC046E0
:1003500000000000BC040020486D001000B589B00A
:1003600004F01AF8192000F0EFF8D0231B068022C1
:1003700092045A621649174806F048FC03210420EB
:1003800000F0B0F80321052000F0ACF800220121B4
:10039000042000F0BFF800220121052000F0BAF887
:1003A00000F080F80021002000F064F8684600F0BA
:1003B0006EF80021012000F05DF804A800F067F855
:1003C000FA20C00000F01BFE00F04EF8EAE7C0463D
:1003D000A08601008C03002000B585B00F226A447E
:1003E00010700023009301332721024806F038FCE7
:1003F00005B000BD8C030020D0B504009626B600E1
:1004000000273000390000F0E3FD04202043C0B293
:10041000FFF7E2FF3000390000F0DAFD042320008E
:100420009843FFF7D9FF3000390000F0D1FDD0BD6F
:1004300070B50F2305009D436DB249B20D430823EB
:100440001D43EDB204010C4364B21C43E4B2280026
:10045000FFF7C2FF2800FFF7CFFF2000FFF7BCFF28
:100460002000FFF7C9FF70BD10B500210120FFF784
:10047000DFFF10BD10B5002806D180310800C0B2E2
:100480000021FFF7D5FF10BDC0310800F7E710B518
:1004900004002078002804D001340121FFF7C8FFB0
:1004A000F7E710BD10B500210320FFF7C1FF0021C1
:1004B0000320FFF7BDFF00210320FFF7B9FF002154
:1004C0000220FFF7B5FF00210620FFF7B1FF002152
:1004D0002820FFF7ADFF00210C20FFF7A9FFFFF751
:1004E000C3FF10BD10B58300084A944663441C68DE
:1004F00040226240C02414408022520113431C60F9
:10050000C000034B9C466044416010BD04C00140E4
:100510000040014080000B4B9C46604400290DD0F8
:100520000823002A0CD004221343026853400C22F3
:100530001340802252011043036070470023F0E70C
:100540000022F1E704C0014010B501238340D0220E
:100550001206936293610521FFF7C4FF10BD0000EE
:10056000EFF3108072B6034B1B68002BFBD0BFF378
:100570005F8F70472C0100D0BFF35F8F024B0022CA
:100580001A6080F3108870472C0100D0F8B5050080
:100590000C001600FFF7E4FFE308EF18ED5C0721FD
:1005A00021402B00CB40DB0707D401228A40D3B285
:1005B0002B433B70FFF7E0FFF8BD2100300001F056
:1005C00065F9F0B583B00600019114001F00FFF734
:1005D000C7FF0500BC4210D8E208B018B15C072282
:1005E00022400B00D340DB0701D50134F2E70123A1
:1005F0009340DBB21943017001E0012464422800FA
:10060000FFF7BAFF002C02DB200003B0F0BD019B16
:10061000002BF9D0089801F039F9000000231F2BB6
:1006200008D8054A9A189200BFF35F8F0021116025
:100630000133F4E77047C04640000034054A1078A3
:10064000431CDBB21370172B02D9130010221A704F
:100650007047C046B802002000B583B00100044BCB
:1006600000931F2318220348FFF7ABFF03B000BD20
:10067000506D001054080020034B1B6802201840E6
:10068000431E9841C0B2704700C0064040BF0020E2
:100690000021704770B505000C00080000F040FD17
:1006A000200000F013FE0849200000F063FDFFF772
:1006B000C5FF064B9C466044800068602C75A40012
:1006C000034BE55070BDC046A50900104000003442
:1006D000780F002070B5002921D003681B7B994258
:1006E0001DD8164B9C466144090183689C466144B1
:1006F0000C684968002A18D003681B7B9A4214D8FA
:1007000083680E488446624412019A18156853683B
:1007100001208B4201D80ED00020C0B270BD084B22
:10072000084A3921084801F093F8054B054A392158
:10073000054801F08DF8A542EFD8EDE7FFFFFF0F68
:10074000BC6D001000700010806D001010B5002905
:100750001ED0037B99421BD84B005B18033B0468F7
:10076000A4466344002919D0002A1DD0914221D00B
:10077000002A25D0047BA24222D8046850008018A9
:10078000033820188170197800291FD11A7010BD04
:10079000104B114A6921114801F05AF8104B114AC7
:1007A00070310E4801F054F80F4B0E4A71210B487E
:1007B00001F04EF80D4B0B4A7221084801F048F841
:1007C000044B054A6921054801F042F841701A704E
:1007D000DDE7C046E06D0010C06F0010FC6D00103A
:1007E000486E0010CC6F0010546E0010606E001048
:1007F00070B506000D001400002914D0002A14D092
:10080000806873689847002806D0220029003000CD
:10081000FFF79CFF280007E02A0021003000FFF7C7
:1008200095FF200000E0100070BD0800FCE700000C
:10083000F0B583B00500009201930AAB1C780BABB6
:100840001F78002C26D003685A7B944207D10123DD
:10085000002B19D1002C3BD1200003B0F0BD002C9F
:100860000CD01A7B944209D81A6863001B19033B09
:10087000D3189B78002BEBD00123E9E73E4B3F4A8E
:1008800069213F4800F0E4FF3E4B3F4A62213F4868
:1008900000F0DEFF03689C7B002CDBD012D01A7BBB
:1008A00094420FD862001219033A19688C466244C8
:1008B00051789973002900D1D97300239370537034
:1008C0001370C7E72C4B2D4A69212D4800F0C0FF5B
:1008D000002C3AD02B681B7B9C4236D82C4BE3185B
:1008E0001B01AA6894466344009A1A60019A5A60F0
:1008F000089A9A60099ADA602E68002C2BD030D0C2
:10090000337B9C422DD863001B19033B326894460D
:10091000634400229A705A701A70717B2200300072
:10092000FFF766FF7073844200D095E7287D009A38
:10093000019B00F067FC061E01D0002F17D00C9B16
:10094000002B00D188E71E7086E7124B124A39212E
:100950000E4800F07DFF114B114AA621084800F017
:1009600077FF054B054A6921054800F071FF2868AB
:10097000210000F085FEE2E7E06D0010C06F00107E
:10098000FC6D0010786E001038700010806D001043
:10099000FFFFFF0FBC6D0010007000107C6D001099
:1009A000E06F0010F0B5DE4657464E464546E0B5CE
:1009B0008DB00B90002399468200AD4BD55850E086
:1009C000AC4BAD4A3921AD4800F042FF002901D1BE
:1009D00000286ED10021504600F048FEB84219D1DF
:1009E0002268636808920993A3689A46E3689B4665
:1009F0005346002B14D0002F18D02B681B7B9F422E
:100A000014D87B1EEA68D35C99461B021843286100
:100A1000002019E09A4B9B4A8921984800F018FF62
:100A2000994B984A8D21954800F012FF914B974AB7
:100A30003E21924800F00CFF00239B460023002437
:100A4000089309949A4600206B68BFF35F8F0022D9
:100A50001A6088F310885346002B37D1002800D144
:100A6000FFE000F069FB069007916A68EFF31088D9
:100A700072B61368002BFCD0BFF35F8F2B689A46C9
:100A80005F7B002FD8D09BD01B7B9F4298D8804B98
:100A9000FC182401AB689C46644422686368089291
:100AA000099310001900069A079B801A99410029A2
:100AB0008CDD089A099B0B9800F0A4FB00239B4651
:100AC00000230024089309949A46BDE74B461E0272
:100AD0003E4359463000D047069007916A68EFF3CD
:100AE000108472B6136859424B41D9B2002BF9D128
:100AF000BFF35F8F079B002B21DB079B002B48DD9B
:100B00002B69002B4BD0B3426AD100F015FB0200D9
:100B10000B0010001900069A079B12184B419942CE
:100B200066D863D0002104910131039102975946A0
:100B30000191514600912800FFF77AFE47E02B69AA
:100B4000002BDAD0B34217D1089A099B069807996F
:100B5000121A8B4108980999994216D812D000218F
:100B60000491013103910297594601915146009138
:100B70002800FFF75DFE2AE0464B424A9C213F4891
:100B800000F066FE08999142E9D901225242D3173A
:100B9000E5E7069A079B002B01D1002AB0D12B680C
:100BA000002F3FD05A7B974226D10121002939D10D
:100BB000DA7B002A3CD1DF73002F4CD02B681B7BE3
:100BC0009F4248D8E9687B1ECA5C0132CA540023A0
:100BD0002B616A68BFF35F8F136084F3108840E76E
:100BE0002C4B284A9F21254800F032FE904299D98B
:100BF00001225242D31795E7002F0DD01A7B97425E
:100C00000AD87A00D219033A186884466244927866
:100C1000002ACBD00121C9E71F4B204A6921204877
:100C200000F016FE1F4B204AF7211D4800F010FE71
:100C3000002A0AD0197B8A4207D851008A18033A41
:100C400019688C4662445770B5E7134B134A692103
:100C5000134800F0FDFD074B0C4A3E21074800F009
:100C6000F7FD0DB03CBC90469946A246AB46F0BDA0
:100C7000780F0020BC6D001000700010806D001017
:100C8000A06E001050700010B86E00100C700010B4
:100C9000FFFFFF0FC46E0010E06D0010C06F00106A
:100CA000FC6D0010006F0010F06F001010B5084BC5
:100CB0005B68002B00D010BD054C2300054A1021B5
:100CC000206800F0F3FB03212000FFF7E3FCF2E7CC
:100CD000BC020020D506001010B5064B5B68002B47
:100CE00001D0044810BD044B044A5921044800F0C7
:100CF000AFFDC046BC020020246F00102070001021
:100D0000806D0010F0B5DE4657464E464546E0B5CC
:100D10008BB0804616001F00149B9A46159B99467F
:100D200016AB1B789B461F2302AA944663440022FD
:100D30001A7029E0002809D042461268127B9042BE
:100D400004D8421E4146C9688A5C3FE03A4B3B4AA0
:100D50003E213B4800F07CFD0798002B63D05B46AA
:100D6000002B60D04946D04704000D0003000B4320
:100D700060D0002944DA32003B00121BAB419F4295
:100D80003AD837D016001F0043465A68EFF3108454
:100D900072B6136859424B41D9B20791002BF8D172
:100DA000BFF35F8F1F3302AA94466344049300236A
:100DB000039302934B4601935346009332003B004A
:100DC0004046FFF735FD031EB4D102004146496895
:100DD000BFF35F8F00250D6084F31088002B20D0B7
:100DE0001F2302A98C4663441B78002BB4D1120246
:100DF0001043B2E79642C5D901267642F717C3E7FA
:100E000000F09AF902000B00A4185D4126002F00A3
:100E1000A94202D8B8D1A042B6D901267642F71726
:100E2000B2E7012040420BB03CBC90469946A24636
:100E3000AB46F0BD0798F6E7BC6D00100C700010D3
:100E4000806D0010F8B504004268EFF3108572B6AB
:100E5000136858424341D8B2002BF9D1BFF35F8FDA
:100E6000CBB22268567BB3421BD10120002847D069
:100E7000206988422BD0090AC9B2002B2DD02068E6
:100E8000007B834229D8581EE668305C88422AD00D
:100E900000206368BFF35F8F00221A6085F310881B
:100EA000F8BD002B0DD0167BB3420AD85E00F618B1
:100EB000033E1768BC466644B678002ED6D00120A3
:100EC000D4E7124B124A6921124800F0C1FC124BC0
:100ED000124AFB21124800F0BBFC124B124A3E2181
:100EE0000F4800F0B5FC1900100000F0C9FB002805
:100EF000CFD181210D4B094A4900094800F0A8FCD7
:100F000023698B42C5D100232361C2E7E06D001045
:100F1000C06F0010FC6D0010486F00106C70001066
:100F2000806D0010BC6D00100C7000106C6F001014
:100F3000F0B585B006000F00FFF795F900281AD12B
:100F400006246442E517A4197D41BD4202D803D1AD
:100F5000B44201D90024002500F0EEF822002B0055
:100F6000121A8B41002B0BDC08D03000390000F046
:100F7000EFF805B0F0BD134800F088FC002AF4D06B
:100F8000FFF7AAFE0023029301930F4B0093220068
:100F90002B00FFF7B7FE002806DAE6E7002300E0A3
:100FA0000023002BE1D120BF084B5B6A9D42F7D89C
:100FB0000649896AA14203D29D42EFD00123F0E79E
:100FC0000123EEE7706F00108D0600100040054011
:100FD00070B504000D0000F0AFF802000B00200017
:100FE0002900801859418B4205D802D0FFF7A0FF95
:100FF00070BD8242FAD901204042C117F6E710B510
:10100000FA2292000023002102F0C6FFFFF7E0FF62
:1010100010BD000070B584B005000C00FFF75CFE49
:10102000002302930193194B00932A002300FFF73A
:1010300069FE061E12DC164B5B6A9C4209D8144AF4
:10104000926AAA4208D29C4201D0012002E000200C
:1010500000E0002004B070BD0120FBE720BFFFF7D7
:101060003BFE3100FFF7EEFE094B5B6A9C4209D85C
:10107000074A926AAA4207D29C4201D00120E9E7BE
:101080000020E7E70020E5E70120E3E78D060010F8
:101090000040054070B5EFF305833F20184010383D
:1010A000EFF3108472B6194B1B68002BFBD0BFF313
:1010B0005F8F012319008140154A5163154A127848
:1010C0001500C5402B4214D0114B5D6A8300124EAF
:1010D0009B599D4206D38300104D5B598A430D49AD
:1010E0000A7007E00A4A031D9B0099589950002393
:1010F00000E00023BFF35F8F044A0021116084F3F6
:101100001088002B00D0984770BDC046280100D041
:1011100000400540A60F0020900F0020440800204A
:1011200010B50100024A0348FFF730FA10BDC0466F
:1011300084700010A30F0020044B5B6A034A906A7E
:101140001900536A9942F9D17047C04600400540E2
:10115000074B5B6A8B4204D2054B5B6AFAE7044B90
:101160005B6A8B4203D1024B9B6A8342F7D3704781
:101170000040054070B504000D00EFF3108672B614
:101180001B4B1B68002BFBD0BFF35F8F002D1CD0C7
:10119000200000F003FE174B83420BD01900200003
:1011A00000F004FE0121200000F0E8FD0123A3402F
:1011B000114A1360A400114BE550BFF35F8F0C4B35
:1011C00000221A6086F3108870BDA2000B4B00212C
:1011D000D1500122A2400A490B7893430B70054974
:1011E000200000F00DFE0021200000F0C7FDE4E724
:1011F000280100D0951000103860054044080020F8
:10120000A60F0020F8B5CE46474680B5040016006C
:101210001D00FFF791FF8D4202D844D1864242D98A
:10122000EFF3108972B6224B1B68002BFBD0BFF383
:101230005F8F0127A7401F4B5F63FAB290461E499C
:101240000A78404602430A70221D9200D650A4003C
:101250001A4AA5501B6A3B4212D1164B1B6C3B42EB
:1012600008D00020BFF35F8F114B00221A6089F372
:10127000108819E0124B134AB221134800F0E8FA23
:10128000FFF75AFF8D420CD801D1864209D8094B8D
:101290001F625F63084A137841468B431370012035
:1012A000E0E70020DEE701200CBC90469946F8BD3F
:1012B000280100D000400540A60F0020900F00201C
:1012C000A870001010710010CC70001010B5EFF372
:1012D000108472B60A4B1B68002BFBD0BFF35F8FE4
:1012E00001238340074A136207490A789A430A7028
:1012F000BFF35F8F024B00221A6084F3108810BD89
:10130000280100D000400540A60F0020024B9C465B
:1013100061448900016070474000003410B504004A
:10132000FFF78CF901002000FFF7F0FFFF23237186
:10133000BFF35F8F10BD10B5FFF7E8FFBFF35F8FFE
:1013400010BD10B504000120FFF786F90100200050
:10135000FFF7F1FF10BD000010B500291ED0037B80
:1013600099421BD84B005B18033B0468A4466344B6
:10137000002919D0002A1DD0914221D0002A25D061
:10138000047BA24222D80468500080180338201839
:101390008170197800291FD11A7010BD104B114AA5
:1013A0006921114800F054FA104B114A70310E486F
:1013B00000F04EFA0F4B0E4A71210B4800F048FA2C
:1013C0000D4B0B4A7221084800F042FA044B054AC3
:1013D0006921054800F03CFA41701A70DDE7C0460B
:1013E000E06D001080720010FC6D0010486E00105F
:1013F0008C720010546E0010606E001070B5060004
:101400000D001400002914D0002A14D080687368DD
:101410009847002806D0220029003000FFF79CFFE3
:10142000280007E02A0021003000FFF795FF200088
:1014300000E0100070BD0800FCE7000010B50023BC
:10144000437301338373037BC3730123027B9A428B
:1014500014D9002B0CD0027B934209D85A00D21821
:10146000033A01688C4662440133DBB25370EDE706
:101470000B4B0C4A69210C4800F0EAF9002A09D00C
:10148000924207D8016853009A18033A8A18002339
:10149000537010BD024B034A6921034800F0D8F98C
:1014A000E06D001080720010FC6D001010B501732B
:1014B00042608360FFF7C2FF10BD000070B50400FA
:1014C000081E00D170BD002934D0237B994231D849
:1014D0004B005B18033B2268944663445A78002A09
:1014E000F0D02DD0237B9A422AD853009B18033B7F
:1014F00021688C4663445D7800215970002825D00E
:10150000237B984222D843001B18033B21688C465A
:1015100063440021597001002000FFF76FFF0600AF
:1015200029002000FFF7CAFF020031002000FFF76A
:1015300065FFC7E7084B094A6921094800F088F9A7
:10154000054B064A6921064800F082F9024B034A1E
:101550006921034800F07CF9E06D001080720010F2
:10156000FC6D001070B505000C001600002928D095
:101570002DD0037B99422AD84B005B18033B0268AD
:10158000944663445A78002A27D19A78002A2AD1AF
:101590001978FFF793FF0300002E03D0EA7B002A9F
:1015A00027D1EC73002B37D1002C49D02B7B9C42E8
:1015B00046D82B6861000C19033C1C19002363708A
:1015C00070BD224B224A3821224800F041F9224BBB
:1015D000224A6921224800F03BF9224B1C4A3A2159
:1015E0001C4800F035F9204B194A3B21194800F0FE
:1015F0002FF9002A0AD0297B8A4207D851008A187D
:10160000033A29688C4662445470CAE7124B134A65
:101610006921134800F01CF9002B0BD02A7B934260
:1016200008D843001B18033B2A68944663440022F1
:101630009A70B9E7084B094A6921094800F008F98E
:10164000054B064A6921064800F002F9C8710010EE
:10165000A0720010D0710010E06D001080720010B8
:10166000FC6D00100C7200103472001070B5040094
:101670000A00457B2900FFF775FF6073280070BDE5
:1016800070B50400002966D0437B8B420ED0002940
:1016900011D0037B99420ED84B005B18033B0268C4
:1016A000D0188378002B0CD1002055E00121FFF7E2
:1016B000DDFF012050E0294B294A6921294800F02B
:1016C000C7F8002B1FD0227B93421CD825685A00F4
:1016D000D318033BEA18EB5C8B421AD0002B1BD0CB
:1016E000227B934218D85A00D318033B2268D218A1
:1016F00053788B4216D0002BF0D11B4B1B4A67212D
:101700001B4800F0A5F8154B154A6921154800F053
:101710009FF84378137007E0104B114A6921114874
:1017200000F096F8437853700023837043700122D1
:101730002000FFF717FF0200617B814205D02000E7
:10174000FFF75CFE6073012006E00A4B074A6D213B
:10175000074800F07DF8002070BDC046E06D001025
:1017600080720010FC6D001058720010B4720010EE
:10177000D07100106072001070B5234B234A1A60BC
:10178000234B244A1A60244B9A68224B9343FAD184
:10179000224C234B9C4202D208CC9847F9E700F038
:1017A00001F91B4B1F4A1A601B4B9B68DB43DB0193
:1017B000FAD11D4B40229A675A671A67DA661B4CAA
:1017C00003E02000FFF7AAFD0834194B9C42F8D330
:1017D000184CA168184DC022280002F09DFCA5609D
:1017E000FEF741FD002800D000BEFEF717FF00F015
:1017F00069FCFFF75BFA114C01E008CC9847104BED
:101800009C42FAD370BDC04600E00040BFCDFFFF50
:1018100000F00040FE7F3C0000C000409C03002020
:10182000AC030020FFFFFF0100F001409403002003
:101830009C03002000ED00E000000020AC0300202D
:10184000B003002000BEFDE710B5FFF7FBFF00006E
:1018500010B582B00C001900002A0CD0084B002AE9
:101860000BD00192009323000200064802F088FD8D
:101870000120FFF7E7FF044BF1E7034AF1E7C04619
:10188000CC720010DC720010D87200100FB400B5DA
:1018900083B0084802F044FD049B002B07D005A943
:1018A0000191180002F04AFD034802F039FD0120C1
:1018B000FFF7C8FF0C7300101C730010F8B5D64674
:1018C000474680B506000D001700089A934243D39F
:1018D000190E1802089A002301F042FD8046740098
:1018E000A419A4002A4B9C4664446368834200D236
:1018F0006060331FDBB29A46012B33D9C0239B01B2
:101900002343802212011A60B300224A9958002909
:1019100005D0506901F0DEFC01300138FDD17F01B6
:1019200022685740E022174080235B0123431F6059
:101930005246012A21D980239B0123438022120190
:101940001A6043466360B600124B089AF2500120B9
:101950000CBC90469A46F8BD0F4B104A2E211048F9
:10196000FFF776FF012DC9D1C0239B01234303223A
:101970001A60A368DB07FCD5D1E721686940032220
:101980000A401A60A2680123AB401342FAD0D2E7A2
:101990000080004058080020207300107C73001065
:1019A0003473001030B583B00C2000F093F8FEF7CC
:1019B00063FE00280DD00023092B05D89900334A77
:1019C000334888500133F7E7304B324A5A6203B04C
:1019D00030BD314B00229A6700F0EAF82F4B01220C
:1019E0001A602D4B5B6C012BFBD12D4B03221A602F
:1019F000294B9B6B012BFBD1C0239B01294A136010
:101A0000294A1360294B9A68C0239B019343F9D15B
:101A1000022400940633264A0121264800F0DCF80F
:101A200000940523244A0121244800F0D5F8244BD2
:101A30000093002202210420FFF740FF214D009572
:101A40002B00002201210520FFF738FF104C0094E5
:101A50002300002200210720FFF730FF009423001D
:101A6000002200210820FFF729FF0A4B00932300E2
:101A7000002200210920FFF721FF00952B00002202
:101A800000210620FFF71AFFA1E7C04658080020F2
:101A9000006CDC021BB70000008000403CB000403E
:101AA00030B0004000E0004000F0004000C00040C6
:101AB000002F68590080024000389C1C00C0024082
:101AC000001BB700405973078000014BC058704796
:101AD0005808002080239B000343014AD3627047CB
:101AE00000800540024B1A68024B5A607047C0469E
:101AF000700F00200080054010B50200144B8020BC
:101B0000C0051860134B1448186000291BD0134BF4
:101B1000E021C9041960002A00D132325001801A34
:101B20008000801800010E4B186080235B049842EF
:101B300002D30B4B0B4A1A60FFF7D4FF074B8022EE
:101B4000D2051A6010BD024BE021C9041960E2E71A
:101B500000B0054008200140FCFF010000A0054046
:101B6000700F0020FFFFFF0010B5030010000C4AAB
:101B70008024E4051460002B0DD001221343094A90
:101B8000094CD461094C5C4014625162936200219B
:101B9000FFF7B2FF10BD034B0022DA61F7E7C04642
:101BA00000B0054000800540D3C007B02D3FF84F7E
:101BB000064BAA2212011A602F22DA60044B054A52
:101BC0001A60024B5B68002BFBDA70470040024052
:101BD0000060024000B0FA00F8B5CE46474680B536
:101BE0000400894690461D00089E01235B42436025
:101BF000002383600C2001F06DFB07004B4623603F
:101C000043011B1A9901C91AC900091889014046E4
:101C100001F060FB0200103A98235B009A421FD843
:101C20006B1E062B22D8731E062B1FD8B54223D35A
:101C300043461A09BA4225D3A060221DC0239B0146
:101C4000134321221A602268002AFCDA2D0436038D
:101C50002E43E66008221A600CBC90469946F8BDF7
:101C60000B4B0C4A1A210C48FFF7F2FD0B4B094AAB
:101C70001D210948FFF7ECFD094B064A23210648C0
:101C8000FFF7E6FD074B034A27210348FFF7E0FD76
:101C90008C73001068740010A8730010E8730010B3
:101CA000347400104C740010074B9B681030800097
:101CB0001950BFF35F8FBFF35F8F044B0021196092
:101CC00082F310887047C04600ED00E0240100D088
:101CD00010B5091A04394808090B05D14005400D13
:101CE000044B184380B210BD034B044A8C210448B6
:101CF000FFF7AEFD00E0FFFF747400105476001093
:101D00008474001010B5091A04394C08090B08D165
:101D10004905490D064A11430180064B2343438080
:101D200010BD054B054A94210548FFF791FDC046BB
:101D300000F0FFFF00F8FFFF7474001060760010E1
:101D40008474001001238340034A10681840431E26
:101D50009841C0B27047C04600E100E0002904D0BD
:101D6000034B1860034B18607047034B1860FBE788
:101D700080E200E000E100E080E100E010B5012336
:101D800083401800FFF7EAFF10BD000001238340E5
:101D9000014A13607047C04600E200E0024B9B68B6
:101DA00010308000C058704700ED00E070B50400AE
:101DB0000D00EFF3108672B60C4B1B68002BFBD0A6
:101DC000BFF35F8F2000FFF7E9FF094B984201D076
:101DD000A84205D1320029002000FFF765FF70BD41
:101DE000044B054A70210548FFF732FD240100D05D
:101DF000CD010010C47400103876001084740010F7
:101E0000F0B5CE46474680B583B006000D00EFF32F
:101E1000108872B6574B1B68002BFBD0BFF35F8F47
:101E2000554B9A6834001034A300D758534B9F4247
:101E300007D0AF4200D19BE00197514BFB1A2F2BEB
:101E400009D9424639003000FFF72EFF03B00CBC21
:101E500090469946F0BD3000FFF774FF814600219F
:101E60003000FFF78BFFBFF35F8FFEF7FCF9002810
:101E700001D0844219D10123019C9C432300404995
:101E80005B1A5B4148495943090D49B20022A368D6
:101E9000AB4212D00622A256002A0DDB53009B183B
:101EA0009B002200364CE418F1E72021354B364ADE
:101EB000FF313648FFF7CCFC2200AB4251D106255A
:101EC0006557002D39DB6B005B199A002C4B9B1872
:101ED0009A68A260DA79E27106229A56A2719B7919
:101EE0005BB2002B10DABD200002A0806B005B19F2
:101EF0009B00234AD318264A1178997115704946D8
:101F00003000FFF73BFF9CE7201D6B005B199B0037
:101F10001B4A9B181A1D9B88D90A1C2907D15905F1
:101F20004915023149005118FFF7D2FEDDE7194B80
:101F3000194A9A211548FFF78BFC00280CD1002A7A
:101F400008D0FF239371154B9380114B1A78A2711F
:101F50001970D4E7094FF8E7201D1149FFF7D2FEA9
:101F6000CDE7AA210F4B084A49000848FFF770FC4B
:101F7000024F66E7240100D000ED00E0CD01001023
:101F8000E4020020D87500108876001084740010D8
:101F9000A40F0020C07500107876001000BDFFFF70
:101FA0001E030020FC750010AAAA000010B5032330
:101FB00004009C43064A9446644422681840C000CA
:101FC000FC3383409A43130081400B43236010BDD0
:101FD00000E400E0F8B50400012606432D4BF31A97
:101FE0002F2B28D8FEF73FF900282BD0EFF31087CE
:101FF00072B6294B1B68002BFBD0BFF35F8F230009
:10200000244D5B1B5B412E4D5D432D0D6DB2234B6B
:102010009B6880001B58B3421BD00022032A32D891
:1020200053009B189B001B49CB189B795BB2AB42BA
:102030001FD00132F2E77221194B1A4AFF311A48B8
:10204000FFF706FCBA21194B164A49001648FFF75C
:10205000FFFB124B9B68164A1A50164B1A78A27156
:102060001D70BFF35F8F0C4B00221A6087F310883E
:10207000F8BD08005300991889004118FF268E7199
:102080000D4A8A80E9E786210C4B064AFF31064853
:10209000FFF7DEFBE4020020240100D000ED00E0A9
:1020A000047600109C760010847400102C760010CA
:1020B000CD010010A40F002000BDFFFF58720010DA
:1020C000AAAA000010B500241F2C05D880212000EA
:1020D000FFF76CFF0134F7E710BD704710B500281B
:1020E00002D00B684968984710BD010000200A68BB
:1020F0001378303BDBB2092B08D883001B185B0038
:10210000501C08601078C0183038F0E77047F0B500
:10211000DE4657464E464546E0B583B093461F001F
:102120000C9B9A460D9C0E9B99460F9B9B0703D0D8
:10213000B8460F00060022E00192A34688464E46AC
:10214000B9460700B44207D2551C4B4641462020F1
:10215000B84701342A00F5E73D004F465C46019B35
:102160009B46B1464646B84637002E0007E0013C84
:10217000551C5346185D43463900B0472A00002CD1
:10218000F5D135003E0047460F9B9B0707D4100052
:1021900003B03CBC90469946A246AB46F0BDB04663
:1021A0004E46B9462F005D46531BB342EFD2541C36
:1021B0004B4641462020B8472200F5E7F0B5CE4611
:1021C000474680B585B0944698460C9D0D9C0EAB55
:1021D0001B789946109A119B129EB7071BD4002BAF
:1021E00008D0F70706D54F46002F02D10C373742EB
:1021F00000D0013B944208D21F2C06D830272F551F
:102200000134F7E730272F550134F70703D59C42F7
:1022100001D21F2CF6D9F70615D5770505D4002C69
:1022200003D0944224D09C4222D00F9A102A2BD063
:102230000F9A102A30D00F9A022A35D01F2C02D8BC
:1022400030222A5501341F2C05D84A46002A31D0A5
:102250002D222A550134039602930194009543469A
:102260006246FFF754FF05B00CBC90469946F0BD9E
:10227000621E012C06D00F9F102F01D01400D4E74E
:10228000023CD2E71400D0E7B206D1D41F2CCFD83D
:1022900078222A550134D1E7B206CCD51F2CCAD8F2
:1022A00058222A550134C9E71F2CC7D860322A5555
:1022B0000134C3E7720703D52B222A550134CAE73C
:1022C0003207C8D520222A550134C4E7F0B5DE46CE
:1022D00057464E464546E0B593B081468A46089239
:1022E00009931CAB10CB1B789B461E9D219B9846E7
:1022F000002C03D1102342469A4390468023DB00F2
:1023000046461E4042461A4212D0002C22D00026D9
:102310000EE03033D9B2771C0AAB99552900200062
:1023200000F0D8FFAC4216D31F2F14D83E00040093
:102330002900200000F0CEFFCBB2092BE9D942469C
:10234000920605D54121C918C9B20A39C9B2E2E7D6
:102350006121F8E7270043460693209B05931F9BC6
:10236000049303955B46029301970AAB0093099B84
:10237000089A51464846FFF721FF13B03CBC9046EF
:102380009946A246AB46F0BDF0B5DE4657464E46EE
:102390004546E0B595B0089009910A920B931E9EB0
:1023A0001F9C20AB1B789B46229B9946239D269B16
:1023B0009A463300234303D1103352469A43924640
:1023C0008023DB0057461F4052461A4219D0330083
:1023D00023432DD0002714E03033DAB27B1C98461B
:1023E0000CABDA554A462B003000210000F0B8FF54
:1023F000A5421FD819D043461F2B1BD847460600BD
:102400000C004A462B003000210000F0A9FFD3B297
:10241000092BE1D95246920605D54122D218D2B2F3
:102420000A3AD2B2DAE76122F8E7B145E3D901E02E
:102430000023984653460693259B0593249B0493BB
:102440004B4603935B460293434601930CAB0093C8
:102450000B9B0A9A09990898FFF7B0FE15B03CBC8F
:1024600090469946A246AB46F0BD0000F0B5DE4668
:1024700057464E464546E0B591B083468A460C9293
:1024800098461A9C08941B9D099522002B00200059
:10249000290001F0DCF9002800D0E5E001225242D9
:1024A000D34B2000290001F0CDF9002800D0DBE05B
:1024B00001225242CF4B2000290001F0ADF9002843
:1024C00000D0D1E000220023089D2800099E3100A1
:1024D00001F0A2F9002800D0DDE0089809990690E3
:1024E00007918023DB001E9A1A400D921E9A1A4211
:1024F00001D106231C930698079904000D000A00D9
:102500000600024300D1CDE0080D4005400DBA4C55
:10251000A44660440A03120BB84B13431F0001F09A
:10252000A9F9B74AB74B01F035F9B74AB74B01F0F3
:102530001FF904000D000022B54B3000390001F0F6
:102540000EF9B44AB44B01F025F902000B0020004B
:10255000290001F00DF901F0A5F9814601F08AF991
:1025600004000D00AD4AAE4B01F014F90022AD4B52
:1025700001F0FEF801F096F90600AB4AAB4B2000E3
:10258000290001F007F904000D00300001F072F994
:10259000A74AA84B01F0FEF802000B00200029001A
:1025A00001F0DDF804000D0002000B0001F0F2F86C
:1025B0000A900B91A04BF31800261F0522002B0058
:1025C0002000290001F0D4F80E900F9122002B007A
:1025D00000208021C90501F0C2F804000D0000228E
:1025E000964B0A980B9901F0CCF80022944B01F01D
:1025F000BFF802000B000A980B9901F0C2F8002204
:10260000904B01F0B5F802000B000A980B9901F00D
:10261000B8F802000B002000290001F0A9F8020020
:102620000B000E980F9901F0ACF80022734B01F0EB
:102630009FF832003B0001F0ADF806000F000400E7
:102640000D00069A079B01F0FDF800282CD001230D
:102650005B429C46E1440022794B3000390001F096
:1026600090F804000D001FE01E9B04931D9B039334
:102670001C9B0293089A099B0092019343460C9A73
:102680005146584600F0F8F811B03CBC90469946C7
:10269000A246AB46F0BD069580231B069C466644C9
:1026A00007961EE7002399464B466333C62B1FD877
:1026B00004261E9B1B0527D52B00234310D0624AFE
:1026C000624B0698079901F0B5F8002800D183E025
:1026D00000225F4B0698079901F09EF800287BD0F6
:1026E0001C9B4B4506DD4A46981A431E1C9303E08B
:1026F0000526DEE700231C938023DB001E9A1A4385
:102700001E920026002399461D9B9E426ED29F1B5F
:1027100002231E9A1A400A921E9A134202D0002ED9
:1027200000D000274B46002B07D022002B00069834
:10273000079901F026F806900791002200230898D7
:10274000099901F069F8002800D085E0414B1E9AF4
:102750001340049303971C9B0293069B079C0093D2
:10276000019443460C9A5146584600F085F8002ED5
:1027700000D189E71E9B9B067AD54525441C43461C
:10278000020051462800D8474B46DA179B185340A1
:1027900005220592013E0496002203920A3202921B
:1027A0004A46D00F019000934346220051465846B6
:1027B000FFF78CFD0A9B002B00D165E702005F4606
:1027C0000C9E1D9D931BAB4254D2541C4346514654
:1027D0002020B8472200F5E71C9B002B94D00D9BCE
:1027E000002B91D01C9B013B1C938DE700278FE7AA
:1027F000FFFFEF7FFFFFEFFF01FCFFFF0000F03F57
:10280000FB799F501344D33FB3C8608B288AC63FDF
:102810000000F83F61436F63A787D23F71A3790936
:102820004F930A400000E03F1655B5BBB16B024024
:10283000EF39FAFE422EE63FFF03000000002C4075
:1028400000002440000018402D431CEBE2361A3FE4
:1028500080842E41FFF7FFFF069C079D2200290080
:1028600080200006844661440B00069207936DE7C2
:10287000652583E7100007E7F0B5DE4657464E466C
:102880004546E0B595B00690079193469946209F3E
:102890001E9A1F9B1000190000F0D9FF002831D1AB
:1028A00001225242BF4B1E981F9900F0B5FF00282D
:1028B00037D101225242BC4B1E981F9900F0C2FF33
:1028C00000283DD10022B94B1E981F9900F0BAFF95
:1028D000002850D10022B64B1E981F9900F09CFF93
:1028E000002848D1002200231E981F9900F094FF71
:1028F000002850D100239846229B5B0500D4B6E007
:10290000002458E0229B0393219B0293032301930D
:10291000A84B00934B465A4607990698FFF7F7FBDA
:102920000EE1229B0393219B029304230193A24B6C
:1029300000934B465A4607990698FFF7E8FBFFE0DD
:102940000423229A1A4022990B4210D09B4B002A52
:102950000FD00422229903912199029101920093B0
:102960004B465A4607990698FFF7D1FBE8E0944B8F
:10297000EDE70322EEE7229B0493219B039302974A
:102980001E9B1F9C009301944B465A46079906983C
:10299000FFF76CFDD4E01E9A1F9B0020002100F081
:1029A000DEFE1E901F9101239846A5E70CAB302256
:1029B0001A55013F01341F2C01D8092FF6D81E9853
:1029C0001F9900F06FFF050000F054FF02000B009C
:1029D0001E981F9900F0C3FEFA007A4B9B181A68E4
:1029E0005B680A920B9300F0D5FE0890099100F005
:1029F0007DFF060000F03AFF02000B0008980999DD
:102A000000F0ADFE0890099100226F4B00F01AFF14
:102A100000282ED00136300000F028FF02000B0005
:102A20000A980B9900F0FEFE002801D0013500261F
:102A3000002F2CD1280000F01DFF02000B001E9873
:102A40001F9900F08CFE06000F0000225E4B00F084
:102A5000E3FE002842D100225B4B3000390000F039
:102A6000F1FE00283AD1EB0738D5013536E00627CC
:102A700046E70022544B0898099900F0CDFE002843
:102A8000D6D1002E01D0F307D2D50136D0E7AA4621
:102A90001F2C11D8013F0A21300000F01BFC651CDF
:102AA00030310CAB19550A21300000F013FC092E0F
:102AB00026D906002C00EBE7554604E00CAA30218D
:102AC00011551F0001341F2C02D87B1E002FF5D199
:102AD0001F2C03D80CAB2E221A5501341F2C14D8EE
:102AE0000A21280000F0CAFB661C30310CAB1955D6
:102AF0000A21280000F0C2FB051E05D03400EDE7D6
:102B00002B0055461C00DEE734000323229A1340B5
:102B1000012B1CD01F2C06D84346002B32D00CAB07
:102B20002D221A550134229B0393219B0293019479
:102B30000CAB00934B465A4607990698FFF7E7FA05
:102B400015B03CBC90469946A246AB46F0BD219BD1
:102B5000002B13D04346002B02D10C3313420FD06D
:102B6000219B013B2193190003E00CAB30221A5545
:102B700001348C42CED21F2CF7D9CBE72199F8E74C
:102B80002199F6E7229B5B0704D50CAB2B221A5543
:102B90000134C8E7229B1B07C5D50CAB20221A5570
:102BA0000134C0E7FFFFEFFFFFFFEF7F65CDCD41B1
:102BB00065CDCDC1C4760010C8760010BC7600107B
:102BC000B8760010B07800100000E03FF0B5DE46A7
:102BD00057464E464546E0B593B082468B469046F2
:102BE0001193002900D1ECE200275546119B18787B
:102BF000002800D1E8E2252809D07C1C43463A0091
:102C00005946A847119B013311932700EEE7013382
:102C1000119300241DE00B00303BDBB2092B37D9A8
:102C20002A293AD000230A93119B1A782E2A44D0DD
:102C300000239A46119A1378683BD9B2122900D919
:102C400080E08B00CB49CB589F4601231C430132C7
:102C50001192119A11780B00203BD8B21028DAD8C3
:102C60008300C548C3589F4602231C43013211927A
:102C7000EFE704231C4301321192EAE708231C43C7
:102C800001321192E5E710231C4301321192E0E773
:102C900011A8FFF72AFA0A90C6E71C9B1A1D1C927E
:102CA0001868002804DB0A90119B01331193BBE7DD
:102CB00002231C4343420A93F6E78022D2001443C6
:102CC0005A1C11925A781300303BDBB2092B04D9FD
:102CD0002A2A07D000239A46ACE711A8FFF705FA85
:102CE0008246A7E71C9B1A1D1C921868002804DB6B
:102CF0008246119B013311939CE70020F8E7802363
:102D00005B002343511C119152786C2A01D01C00A6
:102D100018E0C0239B001C430131119112E0802375
:102D20002343511C11915278682A01D01C0009E0FC
:102D3000C0231C430131119104E080235B001C433C
:102D400001321192119B18780300253BDAB2532A05
:102D500000D92CE29300894AD3589F4680239B00D8
:102D60001C4301321192EDE780235B001C430132CA
:102D70001192E7E7782809D0582838D06F2838D042
:102D8000622838D010239C430A2600E010265828D9
:102D900033D0692803D0642801D00C229443630502
:102DA00001D50122944369282AD0642828D0A3059C
:102DB00000D59FE0E30500D5B8E0630600D4CAE083
:102DC0001C9A111D1C911168FF220A4005940A9B50
:102DD00004935346039302960023019300924346C3
:102DE0003A0059462800FFF771FA070027E010263D
:102DF000CDE70826CBE70226C9E720221443C8E71F
:102E0000A30520D4E30550D4630666D51C9A111D92
:102E10001C911168FF220A40D317D118594005941C
:102E20000A9B0493534603930296D20F019200919A
:102E300043463A0059462800FFF748FA0700119B1D
:102E400001331193D2E61C9BDA1D07218A4311003E
:102E500008311C91116853689C46DB170C930D9345
:102E60000C9A0D9B100048400E90624653400F9301
:102E70000E980F990C9A0D9B801A99410E900F9104
:102E800008940A9B079353460693049600230593E0
:102E90006346DA0F02920090019143463A00594688
:102EA0002800FFF771FA0700C9E71C9A111D1C9151
:102EB0001268D317D118594005940A9B04935346BE
:102EC00003930296D20F0192009143463A0059466D
:102ED0002800FFF7FBF90700B1E7230605D51C9A88
:102EE000111D1C910023D25E96E71C9A111D1C91A6
:102EF000126891E71C9BDA1D07218A4311000831F3
:102F00001C9108940A9B079353460693049600234A
:102F100005930293136854680093019443463A0062
:102F200059462800FFF730FA070088E71C9A111D60
:102F30001C9105940A9B0493534603930296002325
:102F400001931368009343463A0059462800FFF75F
:102F5000BDF9070073E7230606D51C9A111D1C91C5
:102F600012681204120C31E71C9A111D1C91126890
:102F70002CE7C046D07600101C7700106077001058
:102F800046281AD01C9B0733072293431A000832A5
:102F90001C9204940A9A0392524602925C681B683F
:102FA0000093019443463A0059462800FFF764FC19
:102FB0000700119B0133119318E620231C43E1E71E
:102FC000672801D0472802D180231B011C434528D4
:102FD00001D0472801D120231C431C9B0733072223
:102FE00093431A0008321C9204940A9A03925246A0
:102FF00002925C681B680093019443463A0059466C
:103000002800FFF733FA0700119B01331193EDE518
:1030100002231A002240924623421FD001241C9B07
:103020001A1D1C927A1C9146187843463A0059465C
:10303000A8475346002B16D1119B013311934F46DD
:10304000D4E5561C434659462020B8472300320099
:103050005C1C9D42F5D83D001700E0E701233A00D3
:103060002F000A9DF4E74A46A9460A9D06E0571C30
:10307000434659462020C84734003A00661CA54202
:10308000F5D84D469146D7E71C9B1A1D1C921B682C
:1030900099465346002B00D1013B4E4601E00136D4
:1030A00013003278002A02D05A1E002BF7D14B466B
:1030B000F21A10928023DB0026001E401C4203D02F
:1030C000524501D95346109302231A0022400B9215
:1030D000234205D03A0037004C46A946554620E029
:1030E0003A00109B5F46B3462E0006E0551C43464F
:1030F00039002020B04723002A005C1C0A9999421D
:10310000F4D835005E46BB46109437004C46A946BD
:10311000554606E01D000134561C43465946C84733
:1031200032002078002804D0002FF4D06B1E002D30
:10313000F0D117004D460B9B002B03D1119B01339F
:10314000119353E50A9F109B06E0561C43465946CF
:103150002020A847230032005C1C9F42F5D81700AE
:10316000ECE721231C431C9B1A1D1C921B68009337
:1031700005940823049353460393102302930023DA
:10318000019343463A0059462800FFF79FF807008D
:10319000119B0133119329E57C1C43463A005946A3
:1031A0002520A847119B0133119327001EE57C1CA5
:1031B00043463A005946A847119B01331193270013
:1031C00014E50B4B9A460FE5AA4647450DD34346F7
:1031D0005A1E434659460020D047380013B03CBC25
:1031E00090469946A246AB46F0BD3A00F1E7C0468C
:1031F000DB20001000B585B00290039101210093FF
:1032000013004A4202A90248FFF7E0FC05B000BDE6
:10321000DD20001001480421014B18473003002035
:103220004532001010B5010018231B8814221088A5
:10323000984710BD10B5010018231B88162210886E
:10324000984710BDF0B5C64600B507000E00002532
:103250000123984600E00135B5420AD2AC003C1982
:103260002068FFF7DFFF20600028F4D10023984694
:10327000F1E7404604BC9046F0BD0000144A936F4D
:103280009B0815D29066D166002905D0FFE7FFE7BD
:10329000FFE7516F106F704704B580210906C21710
:1032A0005140002800D0C84303F02EFD002104BD8A
:1032B000936F5B08FDD3F0B5946ED56E576F166FA4
:1032C000FFF7E0FF9466D56657671667F0BD00000C
:1032D000000000D0134A936F9B0813D2106651660A
:1032E000002905D0FFE7FFE7FFE7516F106F704738
:1032F00004B5002801D00020C04303F005FD0021E3
:1033000004BDC046936F5B08FDD3F0B5946ED56ED7
:10331000576F166FFFF7E2FF9466D566576716671B
:10332000F0BD0000000000D094464E4A926F920813
:10333000624601D230E0C046F0B54A4EB56F6D0826
:10334000FCD3346E756E776F366F00F025F89446B7
:10335000444A14665566576716676246F0BDC04614
:103360009446404A926F9208624601D258E0C046A5
:10337000F0B53C4EB56F6D08FCD3346E756E776F4B
:10338000366F00F04DF89446364A14665566576716
:1033900016676246F0BDC046002B24DB11D0002921
:1033A0003EDA00B5C943404200D1013100F038F89F
:1033B000C943404200D10131DB43524200D10133C5
:1033C00000BD002AEBD1002801D1002905D0002042
:1033D000C90FC90701D1C043410800B503F08CFCF7
:1033E0000022002300BD00B500290ADBDB43524266
:1033F00000D1013300F014F8C943404200D101313B
:1034000000BDC943404200D10131DB43524200D1EB
:10341000013300F005F8DB43524200D1013300BD17
:10342000002923D1002B18D1002A0CD0BC460D4F07
:1034300038667A6600210023FFE7FFE7FFE77A6F2F
:10344000386F67467047002801D00748010000B573
:1034500003F052FC0022002300BD02000B000020FC
:1034600000217047000000D0FFFFFFFF002B00D0BD
:10347000BDE0130C26D1002AE7D080B4104F396686
:103480007A66FFE7FFE730B4040C7B6F396F1B04EB
:1034900023433B66FFE7FFE7FFE7C04684B27B6F4D
:1034A0003D6F1B0423433B66FFE7FFE7C046002355
:1034B0002C042D0C7A6F386F00196941B0BC70472D
:1034C000000000D0F0B594460025140E01D1120280
:1034D0000835140F01D112010435940F01D1920067
:1034E0000235D40F01D152000135D40B0134254FE0
:1034F0007C66254C3C660E0C93B2FFE7FFE7FFE7C6
:103500003C6F6643360C7703BE467343DF0B5B04A8
:10351000C01AB941130C7343DB18C91ACE086643AD
:10352000360CB64493B273431F0F1B01C01AB94146
:10353000130C73431F0B1B05C01AB941860D8F0274
:103540003E436643360C092D24DB520A7243801A2F
:103550007703460A6643360C16235B1BDE40DF40CA
:10356000BF1964466643821B70460435063301006A
:10357000D940A840C01900D30131A24206D200238D
:10358000F0BD0000000000D0FFFFFFFF121B013064
:10359000F3D3F1E709277F1BFE406446A2B27243D2
:1035A000801A00D20139220C7243130C1204821AC1
:1035B00099410B007046043513370100F940A840CB
:1035C000801900D30131002B02D1A2420AD2F0BDF2
:1035D000013000D30131121BFAD2013BF8D1A242D3
:1035E00000D2F0BD013000D30131121BF7E7F0B576
:1035F0001C0C00D080E00CB400251C0A04D11B0276
:10360000160E3343120208351C0B04D11B01160F92
:103610003343120104359C0B04D19B00960F3343B6
:1036200092000235DC0B02D192185B4101351C007F
:10363000971864410134464F7C66464C3C660E0C3C
:10364000FFE7FFE7FFE7C0463C6F6643360C7703B2
:10365000BE4697B27743C01B00D20139C01B00D2CF
:1036600001399FB27743C91BC91B170C77437E04EE
:10367000FF0B801BB941CE086643360C0C2D33DBA3
:10368000B644120B1F053A431B0B97B27743C01B7E
:1036900000D201399FB27743C91B170C77433E0410
:1036A0003F0C801BB941860D8F023E43664329279C
:1036B0007F1BFE400C3D7746AF40BF1930BCA2B225
:1036C000ABB272437343801A9941220C7243130CBC
:1036D0001204801A994102000B000137001BA94116
:1036E000F9D2781E0021F0BD0C277F1BFE407746E3
:1036F0007F0BAF40FF19E0E700245D1C07D0144F9B
:103700007D663966FFE7FFE7FFE7FFE73C6F95B2AD
:103710009EB265436643401BB141150C1E0C6543C8
:10372000664336042F0C3E432D04401BB1419942A1
:1037300004D202000B0020000021F0BD01D1904214
:10374000F7D3801A994101349942F2D3F6E7000089
:10375000000000D0FFFFFFFF48404140484018B440
:10376000114B5B68FC46019308BD04DFF339001080
:1037700018B40D4B1B68FC46019308BD00DFFD39F2
:10378000001018B4084BDB68FC46019308BD0CDF41
:10379000B53C001018B4044B9B68FC46019308BD6F
:1037A00008DF593B00100000A80F0020FFB5504073
:1037B0004240504059404B40594000E0FFB5154F42
:1037C0004C00640D03D0BC4204D10C0314D800207B
:1037D000090D09055C00640D03D0BC4204D11C0333
:1037E0000AD800221B0D1B0501264B4009D44B4073
:1037F00003D58B4200D18242FFBD9942FCD1904259
:10380000FFBD0B43DB1803431343F5D0C9434918ED
:10381000FFBD0000FF07000000B5FFF7CFFF8041AC
:1038200000BDC04600B5FFF7C9FF01D9002000BDAB
:10383000012000BD00B5FFF7B9FF01D9002000BD90
:10384000012000BD00B5FFF7B1FF804100BD0120A0
:1038500040054A00121804D85A00121801D8002056
:1038600070470120704700207047000000210028A9
:1038700005D17047C1174840401AFAD0C90713B59F
:10388000064B1B6898470CBC441CA2401005120B49
:103890000349091B09051943114310BDA811002054
:1038A0001F04000010B54C00620D8023D218DB000D
:1038B000D21A5B057E2A10DD9E3A13DACC17090373
:1038C000490819435242D140640001341532202A7C
:1038D00005DAD0400843604310BD002010BD084603
:1038E000604310BDC80FC018013810BD18B4044B98
:1038F0005B6AFC46019308BD24DFE13E0010000036
:10390000A80F002070B513231C78012C07D0012CC0
:103910000EDC022C02DC1C4A1C4B9A6470BD002396
:103920001F2BF4D899001848184A88500133F7E73C
:103930001748FFF77FFC05001648FFF77BFC0238AD
:1039400003789B007F2B19DD802229000F4800F0AF
:10395000E3FB022CDDD1104B1A88B5231B029A42DF
:1039600009D10E4B1A880E4B9A4204D10D4B1A887E
:103970000D4B9A42CDD00020FDF788FF0B4B0C4A2F
:1039800030210C48FDF764FFB9390010A80F002062
:10399000534400005346000054380000D83800005B
:1039A000494600009C38000059460000007900108C
:1039B000AC7900106079001007B56046002800D18E
:1039C00000BE01880A0A0230DF2AFAD1C9B2820891
:1039D00004D3028840880004104300E00068024AD3
:1039E0005050039007BD0000A80F00200FB403BC87
:1039F0000CBCF0B50124E407634000E0F0B50C0D09
:103A0000CF0F661E3605891B640503D3C9434042A8
:103A100000D30131640D03D0661CF60A07D0E41B05
:103A200000207F00791C89078912803C24031D0D2A
:103A3000DF0F6E1E36059B1B6D0503D3DB43524221
:103A400000D301336D0D03D06E1CF60A07D0ED1BB9
:103A500000227F007B1C9B079B12803D2D032F1BA8
:103A6000661B58D4A446202E46DA20371400BC40EA
:103A70001D00BD40F24033412A4380185941CB0F0D
:103A800005D0C943C04300226442504151416246BF
:103A90004D0D28D10D0D07D100281FD0241940410C
:103AA0004941013A0D0DF9D0640006D3013000D32D
:103AB0000131002C01D140084000013A0BD4941C84
:103AC000E40A04D112051144DB071944F0BDD907FB
:103AD000204B194300E0D9070020F0BD0029DDD1BB
:103AE000002CDBD1F0BD0132C6074008CD072843CA
:103AF0004908002EE1D0D9E73C2E29DA203E403794
:103B00001400BC4000D00124F24014431A00BB4012
:103B10001C43D317ACE7AC46202F08DA203604004C
:103B2000B4400D00B540F84039412843A5E73C2F8B
:103B30000CDA203F40360400B44000D00124F840A5
:103B400004430800B1400C43C117EAE71000190014
:103B5000002494E70000F07FF0B50C0D661E3605DA
:103B6000891BE60A6405640D02D0651CED0A04D0C9
:103B7000002001210905803C2403A4461C0D671E7A
:103B80003F05DB1BE70A6405640D02D0651CED0AE6
:103B900004D0002201231B05803C240377406444A9
:103BA00097B484B296B27443070C7E43150C6F43EE
:103BB00080B26843361802D3012000043F18300455
:103BC000350C00197D41844688B29AB250430C0CE2
:103BD00062431F0C7C438EB27E43921902D30126AE
:103BE0003604A4191604170C3618674101BC81B2BB
:103BF0009AB25143040C62431B0C5C4380B258439D
:103C0000121802D30120000424181004130C4018C9
:103C100063412D185E410020474106BC88B293B233
:103C200058430C0C6343120C544389B251435B1844
:103C300002D301210904641819041A0C09186241FD
:103C40006D1856410020474118BCF902720D11430E
:103C5000F0026A0D1043ED020A0D03D16D194041C7
:103C60004941013B124E9B1B7600B3420ED26D00C0
:103C700007D30130002671416646354301D1400823
:103C800040001B05C918E4072144F0BD0BDA0133DD
:103C900006D1013004D101314F0D01D04908F2E7BE
:103CA000E1070020F0BD013631050020EBE7000000
:103CB000FF030000F0B51C0D671E3F05DB1BE70A84
:103CC0006405640D02D0661CF60A04D000220123AC
:103CD0001B05803C2403D0252D060026F6432E66C6
:103CE0001E096E66CE0FF619B44649004F0D02D07C
:103CF0007E1CF60A03D000200021403F3F033E1BFC
:103D0000B600B444013F7F05C91B49082E6F013638
:103D100076089C02950D25437543ED137543AD134D
:103D200001356D10F603761B0CB4CC02450D2C4307
:103D3000A2B2B3B25A43270C7B43350C6F43A4B2F3
:103D40006C431B1902D3012424043F191C041D0CCD
:103D5000A4187D4124196D41009A91B2ACB261431F
:103D6000170C7C432B0C5F4392B25A43A41802D326
:103D700001221204BF182204230C52187B41019C1B
:103D80006C431B19520ED9010A434401A01A81B297
:103D9000B2B2514303145A43360C734387B277438C
:103DA000D617D21900277E4136049B191704160C2A
:103DB0007F185E417316ED18F301002680337541BC
:103DC000A90F06D16400690AE8055B0A184309D205
:103DD0002FE00422944480337541A90AA8059B0A68
:103DE000184326D3404149412404009A019B0D0009
:103DF0005543641B4343E41A95B286B27543170CCE
:103E00007E43030C5F4392B25A43B61802D3012299
:103E10001204BF183204330C52197B4152429C41A8
:103E2000002C02D40022013051414008CA0710433F
:103E3000490802B06246D7079210084BD218084BC7
:103E40009A4203D212058918C919F0BD0020002A30
:103E500001DC3900F0BD01331905F5E7FD03000071
:103E6000FE070000624618CA944600291ADAC018F4
:103E700061415B463B415C46B4405246FA402243B6
:103E800044464D4662416B41904699462B46B340AD
:103E90003D41FC401C4352465B46A241AB41924629
:103EA0009B467047C01AA1414B463B414C46B4402B
:103EB0004246FA40224354465D4662416B41924677
:103EC0009B462B46B3403D41FC401C4342464B467B
:103ED000A241AB41904699467047002000217047AF
:103EE000002200B5203200F004F8080000BD0000F8
:103EF00000220B15F1D410B5944600F02FF81414DD
:103F0000013400DA0021CB17134C20476244343AC5
:103F10000CD40C2A07DA040091409040524220321F
:103F2000D440214310BDD843D94310BD203207D41B
:103F30000C469440524220321141D040204310BDE3
:103F40000800C917203203D452422032104110BD5C
:103F50001800190010BD00000D3F00100A0DCC0F15
:103F6000531E1B05C91A520503D3C943404200D34F
:103F70000131520D03D0531CDB0A07D0121B002065
:103F80006400611C89078912803A1203014BD21A1E
:103F900070470000FF03000051434343C9188C469B
:103FA000110C83B24B4310B4040C614392B280B243
:103FB000504362431C041B0C001910BC59411304EC
:103FC000120CC018514161447047000070B51323B2
:103FD0001D782A48FFF72EF90400012D11D0012D7C
:103FE00009DDA31E1B789B007F2B40DD8022210072
:103FF000234800F091F82348FFF714F9224B18608A
:1040000070BD542201001E4800F086F81F4B1A882C
:104010001F4B9A421CD1A7239B011A881D4B9A4221
:1040200016D11D4B1A881D4B9A4211D11C4B1A8870
:1040300094239B019A420BD11A4B1A881A4B9A422D
:1040400006D11A4B1A681A4B9A4201D1152307E080
:104050001848FDF71BFC99001748094A885001339E
:104060001F2BF8D9144A064B1A62DA61B7E7134BD3
:10407000134A42211348FDF7EBFBC04653460000AC
:10408000A81000204C330000A8110020EE290000E9
:10409000C40F0000C20D0000962B0000C0B5000048
:1040A000182B0000CC2A000010B50000FC2C0000EA
:1040B00051ED8764D8720010C9400010C07900101B
:1040C0003C7A0010F479001007B56046002800D152
:1040D00000BE01880A0A0230DF2AFAD1C9B282087A
:1040E00004D3028840880004104300E00068024ABC
:1040F0005050039007BD0000A81000200148042183
:10410000014B18474003002045320010014B1B684B
:104110001847000040030020014B5B68184700006F
:1041200040030020F8B507000D001600437C002B6B
:1041300002D0002400200CE00368110028009847FA
:104140002DE03B7C10E0022115483B689847601C3D
:104150000134B44214DA002CF3DD2B19013B1B7837
:104160000D3B5A425341DBB22A5D0A2AF0D1002BA3
:10417000EED1A042E7DA211A28183B689847E2E717
:10418000B04203DA311A28183B689847002E06DD42
:10419000AD19013D2B780D3B5A4253413B74F8BD9C
:1041A000B47A001070B505000368002B16D00C4BD4
:1041B0001C6805E0290004C92000FFF7B3FFE4688C
:1041C000002C09D02368002BF9D0064B1B68002B6C
:1041D000F0D0A342F3D1EDE700232B6070BDC046C1
:1041E000E8080020EC08002070B505000C000B6802
:1041F000802B05D021684B1C23606418257170BD8D
:104200000800FFF7CFFFF5E710B582B0D0231B06FB
:104210001C6801A9064802F07FFD002806D1019B19
:10422000A34203D0024802F087FD012002B010BD76
:104230009403002010B5024802F056FD10BDC046A0
:1042400094030020F0B5C64600B582B006000D000C
:104250001700FFF7D9FF80466B1C02D0184B1C6873
:104260000DE0300002F008FD0500F7E76B46D91DB0
:104270000A230B7001222000FFF754FFE468002C92
:1042800010D02368002BF9D00E4B1B68002B01D0F7
:10429000A342F3D12A0031002000FFF743FF002F93
:1042A000ECD0E3E74346002B06D1681E8541E8B217
:1042B00002B004BC9046F0BDFFF7BCFFF5E7C04676
:1042C000E8080020EC0800200C4B1A681300002BB3
:1042D0000BD0834202D01A00DB68F8E7002903D133
:1042E000DB68D3600023C36070470029FCD0002A3C
:1042F00001D0D060F8E7014B1860F5E7E80800202E
:1043000010B5064B1C6800E0E468002C04D063681C
:10431000002BF9D09847F7E710BDC046E808002009
:1043200070B5050002F0A8FC04000122010028007D
:10433000FFF788FFFFF7E4FF200070BD70B5A2B063
:1043400004000E00FFF760FF05008422002101A891
:10435000FFF7DCFE3300220001A90848FEF74AFF00
:10436000040001A8FFF71EFFFFF7CAFF002D02D1CE
:10437000200022B070BDFFF75DFFF9E7E9410010B2
:104380000FB400B583B004A901C90191FFF7D6FFAE
:1043900003B008BC04B0184710B500F035F910BDE3
:1043A00070470000014B00221A707047A50F0020D3
:1043B0004B79FF2B0CD18B79002B0BD1CB79012BB7
:1043C0000AD1082A0AD98A78054B1A70092000E018
:1043D000002070470020FCE70020FAE70020F8E703
:1043E000A50F0020012070470120704770B50A79A1
:1043F0004B791B021343144A1278934201D00020D8
:1044000070BD4B78012B03D0022B15D00020F7E7AD
:104410008B78CA7812021343D20503D55A0A0125B4
:10442000954000E000257F241C400848FEF7FAFE76
:104430000300210028009847642205490020FDF769
:1044400093FB0120DCE7C046A50F00205542000089
:10445000002004200123037000487047B87A001040
:1044600010B50B784A7812021A438B781B041A4352
:10447000CB781B0613439622D200934200D010BD86
:104480000348FEF7CFFE0300002108009847C0460E
:104490005542000030B583B005000C0001A9184852
:1044A00002F03AFC002808D1D0231B061B68019AB1
:1044B0009A4221D0124802F03FFC002001F0E4FDB6
:1044C000002807D1032464420D4802F00DFC2000AF
:1044D00003B030BD002001F0FBFD002802D1032411
:1044E0006442F1E722002900002001F001FE041ED1
:1044F000EAD103246442E7E703246442E7E7C046C5
:10450000880F002010B50021054802F005FC0028A6
:1045100000D110BD01F064FB014802F0E5FBF8E7B3
:10452000880F0020F0B5C64600B582B080460D0069
:1045300001A92E4802F0F0FB002808D1D0231B0669
:104540001B68019A9A420FD0284802F0F5FB002020
:1045500001F09AFD002847D1254B0020002118606A
:104560005960224802F0C0FB02B004BC9046F0BD86
:1045700001F036FB002001F0D3FD002001F084FDA6
:104580000028EED0002001F049FE00281DD0AC42EA
:10459000E7DA2E1B002001F041FE0200864200DC1B
:1045A0003200002AE4D043461919002001F01AFE17
:1045B000060001F015FB002001F0B2FDA419FCF784
:1045C000BBFD0B4B18605960E1E7FCF7B5FD084BEC
:1045D0001E685F68074A002392197B419942C0D840
:1045E000D5D19042D3D9BCE70024D0E7880F002072
:1045F000B004002020A1070010B51F20FDF7C6FB66
:10460000FA208000002110BD70B584B01D4B1B78CE
:1046100002F048F81C491F20FDF7C8FB01211F20AC
:10462000FDF7ACFB1948FCF779FEFCF755FB0600DB
:10463000FCF782FD04000D00FA22920000231219FB
:104640006B41994214D811D00121029100210191AE
:104650000F4900913000FCF755FB0400631E9C419C
:10466000E4B2002808D1200004B070BD9042EBD91C
:1046700001225242D317E7E701210648FFF724FE43
:10468000F1E7C0462C81001005450010880F00207E
:10469000F94500105003002000487047847B00104B
:1046A00000487047307B001010B500280BD10F4B2D
:1046B0000F4A5A80012301335B00C022920013434A
:1046C0000A48038010BD05280ED88000094BC45845
:1046D0000023122BEFD8E25C002AECD00133590002
:1046E00002484252DBB2F4E70020EBE7C0080020AA
:1046F00009040000987B00107F220240C309342087
:10470000584368235343C018014BC0187047C04634
:10471000F008002010B582B001AB084A1A800024CE
:1047200008E001AB185DFFF7E7FF012343710023A9
:1047300003750134012CF4D902B010BD0080FFFFD5
:1047400010B5C36A402B00D8402316490A6802619D
:10475000D3180B60990604D03F218B434033114995
:104760000B60104B19688B0610D10F4B5A404B4011
:10477000802149018B420FD83023C35C9B061A432A
:10478000A0231B061A4383681A6010BD074B084A12
:1047900059210848FDF75CF8074B054A5B2105489D
:1047A000FDF756F8740F002000001050B07B001089
:1047B000D07C0010E07B0010387C001070B5040045
:1047C0007F2008404EB2CD0921716570F143C90FB9
:1047D000E170A07000281BD101216171012B19D05B
:1047E000402A1FD8E2623022A354002D1ED0C300FD
:1047F0001B4A94466344E360E36800221A60A3788E
:10480000002B19D1A360174B23610123237070BDC6
:104810000021E2E78021C9008A42E3D31100124857
:10482000FDF734F811001048FDF730F8C3000F4AC7
:1048300094466344E360DFE7002E09DB0138C000E3
:104840000B4B9C466044A0602000FFF779FFDCE73B
:104850000138C000074B9C466044A060F4E7C046A6
:1048600080001050000110506C7C0010840010502B
:104870000C0010500800105070B504000D00160018
:10488000FFF73AFF33002A002100FFF797FF70BDC2
:10489000F0B5CE46474680B583B0264B9B6D984613
:1048A000002701241DE0244B244ADF212448FCF783
:1048B000CFFF34235E4334334A465343F618214B2B
:1048C0009E19F2693179012300930023002000F042
:1048D00068FE280000F020FA4346A343984664008F
:1048E00001374346002B20D01F2F1ED843461C42C1
:1048F000F5D0104BDB6D1C42D5D1134B9C657B086A
:1049000001263E4072425641F6B2FF221A409146BD
:104910003425754368235343ED180A4BED182800DE
:1049200000F0B8FA0028D7D0C3E703B00CBC90461B
:104930009946F0BD00001150947C0010E47C0010FA
:10494000E07B0010F00800200030115070B51D4AC7
:104950009823D45880235B0225001D401C4206D1B9
:10496000E30612D4E30415D4A54225D170BDFFF7A8
:10497000D1FE01221449002000F0F9FD134B8022E2
:1049800092021A6580256D02EAE710231D43FFF7A6
:104990007FFFE7E700230E4A13700A4A1360802363
:1049A0005B011D4301220121002000F0CDFD074BDA
:1049B000802212031A65D7E7290061400548FCF7F9
:1049C00065FFC0460000115000001050003011502B
:1049D000A20F0020A07C001070B50C0015001E0076
:1049E000FFF78AFE33002A00210000F07FFA70BD35
:1049F00010B5FFF78FFE0123002200218020FFF772
:104A0000EBFF10BD10B50400037D002B11D183789E
:104A1000002B05D14378002B12D00122094B9A6656
:104A2000802212010849200000F080F9012323753B
:104A300010BD8421054B064A49000648FCF708FFD3
:104A40000222EBE700201150FFF7FFFFB47C0010BB
:104A5000FC7C0010E07B001010B5FFF74DFEFFF767
:104A6000D1FF10BD10B504008378002B05D1437829
:104A7000002B0AD00122064B9A660022054920002D
:104A800000F054F90023237510BD0222F3E7C0465D
:104A900000301150FFF7FFFF10B5FFF72DFEFFF7B5
:104AA000E1FF10BD10B5002804D101210520FDF75C
:104AB00065F910BD7E21034B034AFF310348FCF723
:104AC000C7FEC046C47C00101C7D0010E07B0010B7
:104AD00010B5002804D1064B1970FFF789FF10BDEF
:104AE000C521044B044A49000448FCF7B1FEC04606
:104AF000A20F0020C47C00102C7D0010E07B001071
:104B000010B5002804D1064B80225202DA6410BD91
:104B1000D221044B044A49000448FCF799FEC046E0
:104B200000201150C47C00103C7D0010E07B001080
:104B300010B5041E28D100F0C7F817490520FDF76D
:104B400035F9D022D20000211448FFF7DFFA144BC8
:104B500000221A70134B144A1A60002240210020D0
:104B6000FFF78AFE002240218020FFF785FE0F4BD1
:104B700001221A6480229205DA6490220C4999502D
:104B80002000FFF7BDFF10BD60210A4B0A4AFF312C
:104B90000A48FCF75DFEC0464D490010F0080020B1
:104BA000A20F0020740F002080011050000011504F
:104BB00010100100C47C0010107D0010E07B00107C
:104BC00010B5002808D10B785B0602D14B78052B75
:104BD00009D0FFF79FFD10BDB021054B054AFF31FD
:104BE0000548FCF735FE054B1A78054B1A60F0E7CF
:104BF000C47C0010487D0010E07B0010A20F002054
:104C00000000115010B50B0000280DD10A79487929
:104C10000721014009021143DA789207920F987830
:104C2000FFF72AFE012010BDC021034B034AFF31CC
:104C30000348FCF70DFEC046C47C0010647D0010E4
:104C4000E07B001010B50400080011001A00002CD1
:104C500004D10123FFF7C0FE012010BDE321034B67
:104C6000034A49000348FCF7F3FDC046C47C00102A
:104C7000747D0010E07B001010B5002803D10800FF
:104C8000FFF7EAFE10BDD021024B034AFF31034873
:104C9000FCF7DEFDC47C0010847D0010E07B00107A
:104CA00010B5002803D10800FFF7F6FE10BDEB2178
:104CB000024B034A49000348FCF7CAFDC47C0010BC
:104CC000947D0010E07B001010B580235B040D4A3A
:104CD00013600D4A13600D4B9A6880235B04934365
:104CE000F9D10B4C9C2200212000FFF70FFA802203
:104CF000520100210748FFF709FA092363670333CC
:104D0000A36710BD00E0004000F0004000C000407C
:104D1000000011500000105000230375437532222B
:104D200083548361C36103628362704710B50029B5
:104D300002D0C3681B681940002A0FD011435305E5
:104D40000CD5C26813685B050BD40A4B0B4013608B
:104D5000FFE7FFE7FFE7FFE7FFE7FFE7C36819604B
:104D600010BD817843789B00034A9A580348FCF7AA
:104D70008DFDC046FFFBFFFF64030020AC7D0010EB
:104D800070B50400056A8022D2002A43C378002B44
:104D900014D06379002B1ED0802189010A430121A0
:104DA0004B4063712423E35C002B02D08023DB01A2
:104DB0001A4300212000FFF7B9FF70BD836AC26962
:104DC0009446634419002A000069FFF7A5F984227C
:104DD00012022A43DDE70021E0E770B504000E006F
:104DE0001500437D002B18D1A5610023E3612A1C27
:104DF000ABB2402B00D9402292B2226201236375EC
:104E0000A662AD1A6A4255412333E55401330022AC
:104E1000E2542000FFF7B4FF70BDFFF77DFFE3E72A
:104E200070B50400C3681B689D05AD0DC278002AEB
:104E300013D11B040BD4C3695B19C361E378002B46
:104E400004D0236AAB4201D9E369A36170BD0D4B65
:104E50000D4ABF210D48FCF7FBFC1B040CD5836AEF
:104E6000C2699446634418002A002169FFF754F987
:104E7000E3695B19E361E1E7054B034AC921034894
:104E8000FCF7E6FCCC7D0010CC7E0010EC7D001021
:104E9000447E001070B50400457D002D17D0FFF74B
:104EA000BFFFA169E2698B1A402B00D9402323621E
:104EB000D318CB1A584243412420235491420BD398
:104EC00003D02000FFF75CFF0025280070BD81782B
:104ED000034A0448FCF7DAFC0348FCF7D7FCC04659
:104EE00064030020647E0010907E001010B50478EA
:104EF000002C04D0002B09D0FFF76FFF10BD0C2150
:104F0000044B054AFF310548FCF7A2FCFFF7C2FF3E
:104F1000F4E7C046B47E0010E47E0010EC7D001083
:104F200070B5002503E00E787519ADB28919954268
:104F30000AD24C78052CF6D18E787A34344064004D
:104F40000419F609A355EEE770BD000070B5050021
:104F50001B4C372200212000FFF7D8F8E01C10225C
:104F6000FF21FFF7D3F8200013301222FF21FFF7B3
:104F7000CDF800F0D3FF00240EE0E200121B9200F7
:104F8000104B1B689B1802E0230010E000235B68B5
:104F9000280098470134E4B20B4B1B78A3420ED390
:104FA0000A4A002AF0D0A342E7D8E31ADBB2002B6A
:104FB000ECD1DA00D21A9200054B9B18E7E770BDDE
:104FC00004080020D4040020A00F00205544001045
:104FD0008480001070B505000C001600086900F010
:104FE000A7FFE36831002800984770BDF0B5D646AA
:104FF0004F464646C0B582460139C8B2FFF750FB5E
:10500000002802D04378022B0AD05F4A5F496048EB
:10501000FFF7B6F900201CBC90469946A246F0BDA9
:10502000C5796B1101225B4C1340190123781026BE
:10503000B343AD112A4052010B4320218B4313434C
:105040002370050009358278C3781B02134381461B
:10505000994478E02B78A846ED187BE0CA229200AC
:105060004A494B48FFF78CF90020D4E7E200121BB5
:105070009200494B1B689B1802E0230014E00023B8
:105080009B683200290050469847071E14D101340E
:10509000E4B2424B1B78A34251D3414A002AECD0E0
:1050A000A342E3D8E31ADBB2002BE8D1DA00D21A2C
:1050B00092003C4B9B18E3E7082818D9864216D388
:1050C000AA78344B9B18DB78FF2B17D1314B9B18F8
:1050D000DC704346002B2AD09A78AB789A4214D1E0
:1050E00043461A796B799A420FD101231BE02E4A6D
:1050F00026492748FFF744F900208CE72B4A23492B
:105100002348FFF73DF9002085E7294A1F49204839
:10511000FFF736F900207EE7A97859181D4A521882
:10512000D4700133DBB24246D2789A42F4D819489F
:1051300023003A0029001330FFF7F2FEED19174B58
:105140001B78A3420FD34D4515D26B780B2B81D022
:10515000002398466B78042B00D07FE74B465E1BFC
:10516000B6B2002495E7D522920008490848FFF717
:1051700007F900204FE70F4B002B03D000E000BFE2
:10518000012048E7012046E71303000034800010A7
:10519000F87E001004080020D4040020A00F002096
:1051A00055440010848000103603000039030000CD
:1051B0004203000000000000F0B583B005000C00C1
:1051C000CB7888780F2B5ED89B00324AD3589F4605
:1051D000FFF762FA020012232100280000F04AFEC5
:1051E00052E02D4B002B10D000E000BF06006B46B4
:1051F0009F1D811C02223800FEF78EFF3B88320083
:105200002100280000F036FE3EE000203CE0FFF7E1
:1052100047FA061E0DD06B469F1D811C02223800E6
:10522000FEF77AFF3B8832002100280000F022FEC2
:105230002AE01A4A1A491B48FFF7A2F8002023E087
:105240000B79497909021943FFF72EFA021E1DD086
:1052500003782100280000F00DFE15E0124B002B12
:1052600016D000E000BF021E05D003782100280000
:1052700000F000FE08E0F032920009490948FFF70B
:105280007FF8002000E0002003B0F0BD0020FBE725
:105290000020F9E7107F001000000000A2030000CA
:1052A00048800010F87E001000000000024B587883
:1052B000431E9841C0B2704704080020024B187882
:1052C0004007C00F7047C0460408002010B53722C1
:1052D00000212348FEF71AFF224C2000FCF71EF89D
:1052E000214B1C60214C20001830FCF72AF82000CC
:1052F00001F0D1FB1E4B1C601E4B002B04D01E483E
:10530000FFF7A8F81D4B186000240DE0E200121B07
:1053100092001A4B1B689B1802E023000FE0002349
:105320001B6898470134E4B2134B1B78A3420ED399
:10533000104A002AF1D0A342E8D8E31ADBB2002BCE
:10534000EDD1DA00D21A92000D4B9B18E8E700204D
:10535000FFF7EEFB0020FFF7A5FB012010BDC046C4
:1053600004080020BC0700203C0800206C0300203B
:105370004008002055440010A00F0020D404002055
:105380008480001010B501004378042B00D16CE03C
:1053900005D8022B32D0032B00D09FE010BD052B87
:1053A00000D09BE0624B1B78DB07F7D5604A13788F
:1053B0000420834313705F4B1C686369002B00D08B
:1053C00086E0A269EFF3108072B61368002BFCD060
:1053D000BFF35F8FE061200001F0F1FAA269E36999
:1053E000BFF35F8F0021116083F310880028D5D1AF
:1053F000AD2251495148FEF7C3FFCFE74C4B1A7815
:10540000012082431A701A78013082431A700022F8
:105410005A701A78023082431A70464B1C686369CE
:10542000002B1CD1A269EFF3108072B61368002B19
:10543000FCD0BFF35F8FE061200001F0C0FAA269E9
:10544000E369BFF35F8F0021116083F310880028A8
:10545000A4D1AD2238493948FEF792FF9EE7384B78
:10546000354AA7213748FCF7F3F9314B1B78DB07A6
:1054700000D493E72E4A13780420034313702D4B76
:105480001C686369002B1DD1A269EFF3108072B60E
:105490001368002BFCD0BFF35F8FE061200001F0A8
:1054A0008EFAA269E369BFF35F8F0021116083F375
:1054B0001088002800D071E7AD221F491F48FEF771
:1054C0005FFF6BE71E4B1C4AA7211E48FCF7C0F983
:1054D0001B4B194AA7211B48FCF7BAF9154B1C684E
:1054E0006369002B1DD1A269EFF3108072B61368B7
:1054F000002BFCD0BFF35F8FE061200001F05FFA6A
:10550000A269E369BFF35F8F0021116083F3108804
:10551000002800D042E7AD2207490848FEF730FFD7
:105520003CE7074B044AA7210648FCF791F9C0461F
:10553000040800204008002000800010F87E0010C1
:10554000507F0010607F001070B584B006000D0021
:1055500014000C22002101A8FEF7D8FD6B461E7135
:105560005D71210001A8FFF70DFF04B070BD70B59B
:1055700084B006000D0014000C22002101A8FEF7E3
:10558000C5FD6B461E7106236A4653710822290029
:1055900002A8FEF7C1FD210001A8FFF7F3FE04B049
:1055A00070BDF0B5CE46474680B585B080460F0049
:1055B00016001D000CAB1B78994601AC0822002197
:1055C0002000FEF7A3FD4346237007236370277175
:1055D000A660657149462000FFF7D4FE05B00CBCFB
:1055E00090469946F0BD10B5FFF70CFB10BD0000CA
:1055F000F0B5D6464F464646C0B581460C0017006A
:105600009846089B9A46002516E0184A18491948FA
:10561000FEF7B6FE002630001CBC90469946A24616
:10562000F0BD154A12491348FEF7AAFEF3E75246A9
:1056300013702378E4180135AF4214DD6378052B2D
:10564000E3D1E1788907890F4145DED12100484641
:10565000FFF7C9FF061EE4D0A378DA09012AE6D1D4
:10566000099A1370E5E70126D5E7C0462D0400002E
:1056700060800010F87E00102E04000070B57F25B9
:105680000D40CC096A001E4B9B181B1920335B7917
:10569000DB07DE0F002B30D1194B9B181B19203371
:1056A0005B795B072AD4174B18680121494201F046
:1056B0003BFB6A00124B9B181B1920335B79DB07FD
:1056C00008D40F4B9B181B1920335B795B0712D54D
:1056D000002600E00026002E08D06D0008494D1974
:1056E0002C1920346379042213436371054B186825
:1056F00001F0FAFA02E00126EDE70026300070BD65
:10570000040800203C08002070B57F250D40CC091E
:10571000154B18680121494201F006FB6A00134B42
:105720009B181B1920335B79DB0708D40F4B9B18A0
:105730001B1920335B795B0713D4002600E0002699
:10574000002E08D06D0009494D192C1920346379B9
:10575000042293436371044B186801F0C5FA3000CA
:1057600070BD0126ECE7C0463C080020040800207C
:10577000F0B5C64600B582B001937F250D40CE0935
:105780006F00174CE419A41920346479E4071DD480
:105790006F00134CE419A419203463790127BC4627
:1057A00067463B436371019BFFF74CFA002813D116
:1057B0006D000B4B5D19AE192036737901229343AE
:1057C0007371737903329343737105E0054A064997
:1057D0000648FEF7D5FD002002B004BC9046F0BD9F
:1057E000040800209504000074800010F87E00106A
:1057F00070B57F240C40CD09FFF73EFA6400064BDC
:105800001B195B1920335A7902210A435A715A79BC
:1058100001210A435A7170BD0408002070B57F242D
:105820000C40CD09FFF73CFA6400064B1B195B19CD
:1058300020335A7902218A435A715A7901398A43AD
:105840005A7170BD040800207F220A40CB09520023
:1058500003498918C918203148798007C00F70475B
:1058600004080020F0B5C64600B582B005000C0063
:10587000002000F05DFB227860231340602B12D0E3
:10588000402B17D02278D206D20E012A00D1CAE0CE
:10589000022A00D104E1002A1CD00026300002B008
:1058A00004BC9046F0BDC14AC149C248FEF768FD3C
:1058B0000026F3E7C04B002B00D164E1BF4B002B67
:1058C00002D0180000F034FB2100280000E000BFE7
:1058D0000600E3E7202B0AD0002B00D05BE16378C1
:1058E000092B00D959E19B00B54AD3589F4623792B
:1058F0000F2B00D949E1B34AD318DB78B24A002A0A
:1059000005D0B24A1278934212D39B1ADBB2002B15
:1059100000D03CE1D900CB1A9B00AD49C918002941
:1059200000D136E122002800FFF754FB0600B5E75E
:10593000D900CB1A9B00A74A1168C918EFE72000CD
:1059400000F0FCFAA1782800FFF7C2F89D4A13780E
:1059500002210B4313700126A0E79A4B5B786A463D
:105960000632137001232100280000F083FA01267B
:1059700094E7A778934B5B78002B01D1002F07D1D8
:10598000904B5F702100280000F058FA012685E74F
:1059900039002800FFF72AFB061EF1D18E4A844900
:1059A0008448FEF7EDFC79E721002800FFF704FCAE
:1059B000060073E7A278E3781B021343012B01D0A2
:1059C00000266BE77F4A137808210B4313702100F0
:1059D000280000F033FA012660E7A278E3781B0282
:1059E0001343012B01D0002658E7764A137808218B
:1059F0008B4313702100280000F020FA01264DE7A8
:105A0000704B1A78510992080223134001220A4070
:105A100013436A460632138002232100280000F057
:105A200029FA01263AE723790F2B00D9B7E0654A16
:105A3000D318DB78644A002A05D0644A127893426E
:105A400027D39B1ADBB2002B00D0AAE0D900CB1AD7
:105A50009B005F49C918002900D1A4E0220028005A
:105A6000FFF7B8FA061E00D018E7237860221A4222
:105A700000D013E763780A2B00D00FE76B469A1D1E
:105A80000023137001332100280000F0F3F90136E0
:105A900004E7D900CB1A9B004E4A1168C918DAE70F
:105AA00021797F270F40CA099046082F0AD8002B7A
:105AB0003AD16378012B19D0032B26D0002B08D0C4
:105AC0000026EBE6454A3A493A48FEF759FC0026DB
:105AD000E4E62800FFF7B8FE6B469A1D108002230B
